:0400000067EF00F0B6
:100018004880D8CF02F0E8CF03F0E0CF04F0FACF61
:1000280005F0FBCF06F0E9CF07F0EACF08F0E1CF03
:1000380009F0E2CF0AF0D9CF0BF0DACF0CF0F3CF0A
:100048000DF0F4CF0EF0F6CF0FF0F7CF10F0F8CF99
:1000580011F0F5CF12F048C013F049C014F04AC0AF
:1000680015F04BC016F011EC09F0ECEC08F016C0D6
:100078004BF015C04AF014C049F013C048F012C044
:10008800F5FF11C0F8FF10C0F7FF0FC0F6FF0EC054
:10009800F4FF0DC0F3FF0CC0DAFF0BC0D9FF0AC094
:1000A800E2FF09C0E1FF08C0EAFF07C0E9FF06C098
:1000B800FBFF05C0FAFF04C0E0FF03C0E8FF02C071
:0A00C800D8FF489010004BEF09F03C
:100F0000000D0A57656C636F6D6520746F20554145
:100F1000525431206F757470757420544553540ABF
:100F20000D000D0A57656C636F6D6520746F205559
:100F300041525432206F7574707574205445535467
:100F40000A0D00008AEC09F092EC09F0C1EC09F0FE
:100F5000BFEC09F0BDEC09F0BAEC09F0800E246E8C
:100F6000250E256E000E266E000E276E5AEC08F038
:100F7000800E246E250E256E000E266E000E276E46
:100F800007EC08F034EC09F0F28AF28EF28C8398C8
:100F9000839A839C839E010E186E0F0E196E75EC5A
:100FA00009F0220E186E0F0E196E60EC09F0000E9B
:100FB00000017C6F020E7C6501D013D0839E838874
:100FC0009AEC09F08398838A9AEC09F0839A838CCF
:100FD0009AEC09F0839C838E9AEC09F000017C2B3B
:100FE000E9D78EB805D08388838A838C838EF9D71E
:100FF0008FBA05D08398839A839C839EF2D7B5ECF1
:1010000009F000017B6F7B51F00B836EEAD70B0E6A
:101010000E01F86F100E8D6F0F0121910E019F8749
:101020009E85000E176E900E186ED00E196E030E70
:101030001A6E24C028F025C029F026C02AF027C047
:101040002BF0020ED890283629362A362B36E82E79
:10105000F9D7040E28241B6E000E29201C6E000EEA
:101060002A201D6E000E2B201E6EABEC08F017C060
:101070002DF018C02EF019C02FF01AC030F02DC07E
:101080009BFE0E019C6B2EC09CFE9E999E9D9E8B8E
:101090009D9D9D899D8FC59D99CE2CF099CE2CF05C
:1010A000C58FBD9F000E0001766F000E756F000E9C
:1010B000746F1200090E0E01FD6F170EB56F0F0150
:1010C000219F9F869E84000E176E900E186ED00E84
:1010D000196E030E1A6E24C028F025C029F026C010
:1010E0002AF027C02BF0020ED890283629362A364F
:1010F0002B36E82EF9D7040E28241B6E000E29206B
:101100001C6E000E2A201D6E000E2B201E6EABECF6
:1011100008F017C02DF018C02EF019C02FF01AC01B
:1011200030F02DC09BFF9C6A2EC09CFF9E989E9C19
:101130009E8A9D9C9D889D8E0E01C59999CF2CF00D
:1011400099CF2CF0C58BBD9B000E476E000E466EEE
:10115000000E456E1200000E1F6E000E206E000E77
:10116000216E000E226E1B501C101D101E10D8B4D4
:101170002AD0010E236E06D0D8901B361C361D36A1
:101180001E36232A1EAEF8D7D8901F3620362136B9
:1011900022361B50175C1C5018581D5019581E50F1
:1011A0001A58D8A009D01B50175E1C50185A1D5051
:1011B000195A1E501A5A1F80D8901E321D321C32E6
:1011C0001B32232EE1D71FC017F020C018F021C01A
:1011D00019F022C01AF012000E01CDAF1200140E49
:1011E000000176611BD07551010D600EF324D96E9C
:1011F000000EF420DA6E99CEDFFF762B752B130EDE
:10120000756502D0000E756F100E7619D8A4120005
:101210000E019EA3FDD7130E9A6F120099CE01F016
:1012200012000E01CDAB1200140E47601AD04650CA
:10123000010D310EF324D96E000EF420DA6E99CF31
:10124000DFFF472A462A130E466402D0000E466E80
:10125000100E4718D8A412009EA2FED7130E9A6E45
:10126000120099CF01F01200100E606E000E0F01F7
:10127000596F000E5A6F000E5B6F000E586F000E14
:101280005F6F000E5E6F000E5C6F000E5D6F8880FA
:101290001181608E120000EE60F0170EEE6AE80613
:1012A000FDE100EE31F0170EEE6AE806FDE1489030
:1012B0004892000EF86E0F0EF76E0001A2EF07F0D5
:1012C0000AD018C0F6FF19C0F7FF0800F550A8ECC7
:1012D00009F0184A192A18C0F6FF19C0F7FF0800CC
:1012E000F5500009D8B41200ECD70AD018C0F6FFA8
:1012F00019C0F7FF0800F550AFEC09F0184A192A99
:1013000018C0F6FF19C0F7FF0800F5500009D8B45F
:101310001200ECD7E0CF7DF00F01199989887DC0CC
:10132000E0FF1200E0CF7DF00F01219B8A8A7DC093
:10133000E0FF1200E0CF7AF0E06A100E796F772FAD
:10134000FED7782FFCD7792FFAD77AC0E0FF1200AA
:10135000176E0E019EA3FDD717C09AFE1200176EDE
:101360009EA2FED717C09AFF1200608060B0FED721
:10137000645012000F01889E1200889C1200889A07
:0613800012008898120023
:020000040020DA
:10000000FF0FFF0FFF0FFF0FFF0FFF0FFF0FFF0F80
:020000040030CA
:0C0000008CFFFFF7ACCFFFFFFFFFFFFFFE
:00000001FF
