:04000000A9EFFFF075
:020000040001F9
:10FF4E00889812000001ACEFFFF0A7ECFFF0838859
:10FF5E00ECECFFF08398ECECFFF0F9D70F018988F9
:10FF6E000F01199912000F018A8A0F01219B1200AD
:10FF7E00E0CFE8FF0001E8CF6CF0330E6B6F6B2F14
:10FF8E00FED76CC0E0FFE0CFE8FF0001E8CF6AF0DB
:10FF9E00640E696F350E686F682F692F6AC0E0FFB7
:10FFAE00350CE0CFE8FF0001E8CF67F0C80E666FB2
:10FFBE00640E656F350E646F642FFED7652FFAD70A
:10FFCE00662FF6D767C0E0FF350CE0CFE8FF0001E3
:10FFDE00E8CF63F0280E626F640E616F350E606FAE
:10FFEE00602FFED7612FFAD7622FF6D763C0E0FFDE
:02FFFE001200EF
:020000040020DA
:10000000FF0FFF0FFF0FFF0FFF0FFF0FFF0FFF0F80
:020000040030CA
:0C0000008CFFFFF7ACCFFFFFFFFFFFFFFE
:00000001FF
