:0400000067EF00F0B6
:100018004680D8CF02F0E8CF03F0E0CF04F0FACF63
:1000280005F0FBCF06F0E9CF07F0EACF08F0E1CF03
:1000380009F0E2CF0AF0D9CF0BF0DACF0CF0F3CF0A
:100048000DF0F4CF0EF0F6CF0FF0F7CF10F0F8CF99
:1000580011F0F5CF12F046C013F047C014F048C0B5
:1000680015F049C016F052EC09F02DEC09F016C055
:1000780049F015C048F014C047F013C046F012C04C
:10008800F5FF11C0F8FF10C0F7FF0FC0F6FF0EC054
:10009800F4FF0DC0F3FF0CC0DAFF0BC0D9FF0AC094
:1000A800E2FF09C0E1FF08C0EAFF07C0E9FF06C098
:1000B800FBFF05C0FAFF04C0E0FF03C0E8FF02C071
:0A00C800D8FF4690100075EF09F014
:100F00000057656C636F6D6520746F2055415254B6
:100F1000310A0D0057656C636F6D6520746F205545
:100F2000415254320A0D0000800E246E250E256EAB
:100F3000000E266E000E276E44EC08F0800E246E24
:100F4000250E256E000E266E000E276EF1EC07F0C2
:100F5000F28AF28EF28C010E186E0F0E196E9FEC53
:100F600009F0140E186E0F0E196E8AEC09F02C0E93
:100F7000186E000E196E010E1A6E02EC09F00009CF
:100F8000D8B412D00D0E2C18D8A40AD00A0EBBEC7F
:100F900009F00A0EB4EC09F02C50B4EC09F0E7D7D4
:100FA0002C50B4EC09F0E3D72C0E186E000E196E1D
:100FB000010E1A6ED6EC08F00009D8B4D8D70D0E81
:100FC0002C18D8A40AD00A0EBBEC09F00A0EB4EC17
:100FD00009F02C50BBEC09F0CAD72C50BBEC09F03F
:100FE000C6D70B0E0E01F86F100E8D6F0F012191F9
:100FF0000E019F879E85000E176E900E186ED00E04
:10100000196E030E1A6E24C028F025C029F026C0E0
:101010002AF027C02BF0020ED890283629362A361F
:101020002B36E82EF9D7040E28241B6E000E29203B
:101030001C6E000E2A201D6E000E2B201E6E95ECDD
:1010400008F017C078F018C079F019C07AF01AC00B
:101050007BF078C09BFE0E019C6B79C09CFE9E9934
:101060009E9D9E8B9D9D9D899D8FC59D99CE77F060
:1010700099CE77F0C58FBD9F000E0001766F000EF0
:10108000756F000E746F1200090E0E01FD6F170EC2
:10109000B56F0F01219F9F869E84000E176E900EE4
:1010A000186ED00E196E030E1A6E24C028F025C0DB
:1010B00029F026C02AF027C02BF0020ED89028363F
:1010C00029362A362B36E82EF9D7040E28241B6E33
:1010D000000E29201C6E000E2A201D6E000E2B20F3
:1010E0001E6E95EC08F017C078F018C079F019C0A2
:1010F0007AF01AC07BF078C09BFF9C6A79C09CFF95
:101100009E989E9C9E8A9D9C9D889D8E0E01C59951
:1011100099CF77F099CF77F0C58BBD9B000E436ECA
:10112000000E426E000E416E1200000E1F6E000E89
:10113000206E000E216E000E226E1B501C101D1022
:101140001E10D8B42AD0010E236E06D0D8901B36BC
:101150001C361D361E36232A1EAEF8D7D8901F36F1
:101160002036213622361B50175C1C5018581D5053
:1011700019581E501A58D8A009D01B50175E1C5081
:10118000185A1D50195A1E501A5A1F80D8901E32D4
:101190001D321C321B32232EE1D71FC017F020C096
:1011A00018F021C019F022C01AF012000001765187
:1011B000D8B426D07451010D600EF324D96E000E00
:1011C000F420DA6EDF501B6E7607742B130E7465F5
:1011D00002D0000E746F0A0E7619D8A403D0110E37
:1011E000B4EC09F01A50D8B403D01B50B4EC09F099
:1011F00018C0D9FF19C0DAFF1BC0DFFF010E1200B3
:10120000000E12004350D8B426D04150010D2D0ECF
:10121000F324D96E000EF420DA6EDF501B6E430605
:10122000412A130E416402D0000E416E0A0E43188B
:10123000D8A403D0110EBBEC09F01A50D8B403D0D7
:101240001B50BBEC09F018C0D9FF19C0DAFF1BC056
:10125000DFFF010E1200000E12000E01CDAF1200D2
:10126000140E000176611BD07551010D600EF32440
:10127000D96E000EF420DA6E99CEDFFF762B752B37
:10128000130E756502D0000E756F100E7619D8A476
:1012900012000E019EA3FDD7130E9A6F120099CE75
:1012A00001F012000E01CDAB1200140E43601AD0F3
:1012B0004250010D2D0EF324D96E000EF420DA6E8B
:1012C00099CFDFFF432A422A130E426402D0000E58
:1012D000426E100E4318D8A412009EA2FED7130E21
:1012E0009A6E120099CF01F0120000EE60F0170E16
:1012F000EE6AE806FDE100EE2DF0190EEE6AE80652
:10130000FDE146904692000EF86E0F0EF76E00015A
:1013100094EF07F00AD018C0F6FF19C0F7FF0800D5
:10132000F550B4EC09F0184A192A18C0F6FF19C094
:10133000F7FF0800F5500009D8B41200ECD70AD026
:1013400018C0F6FF19C0F7FF0800F550BBEC09F014
:10135000184A192A18C0F6FF19C0F7FF0800F550FF
:101360000009D8B41200ECD7176E0E019EA3FDD76A
:1013700017C09AFE1200176E9EA2FED717C09AFFE2
:02138000120059
:020000040020DA
:10000000FF0FFF0FFF0FFF0FFF0FFF0FFF0FFF0F80
:020000040030CA
:0C0000008CFFFFF7ACCFFFFFFFFFFFFFFE
:00000001FF
