:04000000CFEFFFF04F
:020000040001F9
:10FF8C0088981200889A1200889C12000F01889E93
:10FF9C0012000001D7EFFFF0608060B0FED7645014
:10FFAC001200E9ECFFF0C6ECFFF0C8ECFFF0CAEC75
:10FFBC00FFF0CCECFFF0D2ECFFF0016E0150F00B37
:10FFCC00836E00F0F8D7100E606E000E0F01596FA3
:10FFDC00000E5A6F000E5B6F000E586F000E5F6FB5
:10FFEC00000E5E6F000E5C6F000E5D6F88801181DD
:04FFFC00608E120001
:020000040020DA
:10000000FF0FFF0FFF0FFF0FFF0FFF0FFF0FFF0F80
:020000040030CA
:0C0000008CFFFFF7ACCFFFFFFFFFFFFFFE
:00000001FF
